{
  "_format": "hh3-artifact-1",
  "contractName": "CrowdfundingFactory",
  "sourceName": "contracts/CrowdfundingFactory.sol",
  "abi": [
    {
      "inputs": [],
      "stateMutability": "nonpayable",
      "type": "constructor"
    },
    {
      "inputs": [
        {
          "internalType": "uint256",
          "name": "",
          "type": "uint256"
        }
      ],
      "name": "campaigns",
      "outputs": [
        {
          "internalType": "address",
          "name": "campaignAddress",
          "type": "address"
        },
        {
          "internalType": "address",
          "name": "owner",
          "type": "address"
        },
        {
          "internalType": "string",
          "name": "name",
          "type": "string"
        },
        {
          "internalType": "uint256",
          "name": "creationTime",
          "type": "uint256"
        }
      ],
      "stateMutability": "view",
      "type": "function"
    },
    {
      "inputs": [
        {
          "internalType": "string",
          "name": "_name",
          "type": "string"
        },
        {
          "internalType": "string",
          "name": "_description",
          "type": "string"
        },
        {
          "internalType": "uint256",
          "name": "_minGoal",
          "type": "uint256"
        },
        {
          "internalType": "uint256",
          "name": "_maxGoal",
          "type": "uint256"
        },
        {
          "internalType": "uint256",
          "name": "_durationInDays",
          "type": "uint256"
        }
      ],
      "name": "createCampaign",
      "outputs": [],
      "stateMutability": "nonpayable",
      "type": "function"
    },
    {
      "inputs": [],
      "name": "getAllCampaigns",
      "outputs": [
        {
          "components": [
            {
              "internalType": "address",
              "name": "campaignAddress",
              "type": "address"
            },
            {
              "internalType": "address",
              "name": "owner",
              "type": "address"
            },
            {
              "internalType": "string",
              "name": "name",
              "type": "string"
            },
            {
              "internalType": "uint256",
              "name": "creationTime",
              "type": "uint256"
            }
          ],
          "internalType": "struct CrowdfundingFactory.Campaign[]",
          "name": "",
          "type": "tuple[]"
        }
      ],
      "stateMutability": "view",
      "type": "function"
    },
    {
      "inputs": [
        {
          "internalType": "address",
          "name": "_user",
          "type": "address"
        }
      ],
      "name": "getUserCampaigns",
      "outputs": [
        {
          "components": [
            {
              "internalType": "address",
              "name": "campaignAddress",
              "type": "address"
            },
            {
              "internalType": "address",
              "name": "owner",
              "type": "address"
            },
            {
              "internalType": "string",
              "name": "name",
              "type": "string"
            },
            {
              "internalType": "uint256",
              "name": "creationTime",
              "type": "uint256"
            }
          ],
          "internalType": "struct CrowdfundingFactory.Campaign[]",
          "name": "",
          "type": "tuple[]"
        }
      ],
      "stateMutability": "view",
      "type": "function"
    },
    {
      "inputs": [],
      "name": "owner",
      "outputs": [
        {
          "internalType": "address",
          "name": "",
          "type": "address"
        }
      ],
      "stateMutability": "view",
      "type": "function"
    },
    {
      "inputs": [],
      "name": "paused",
      "outputs": [
        {
          "internalType": "bool",
          "name": "",
          "type": "bool"
        }
      ],
      "stateMutability": "view",
      "type": "function"
    },
    {
      "inputs": [],
      "name": "togglePause",
      "outputs": [],
      "stateMutability": "nonpayable",
      "type": "function"
    },
    {
      "inputs": [
        {
          "internalType": "address",
          "name": "",
          "type": "address"
        },
        {
          "internalType": "uint256",
          "name": "",
          "type": "uint256"
        }
      ],
      "name": "userCampaigns",
      "outputs": [
        {
          "internalType": "address",
          "name": "campaignAddress",
          "type": "address"
        },
        {
          "internalType": "address",
          "name": "owner",
          "type": "address"
        },
        {
          "internalType": "string",
          "name": "name",
          "type": "string"
        },
        {
          "internalType": "uint256",
          "name": "creationTime",
          "type": "uint256"
        }
      ],
      "stateMutability": "view",
      "type": "function"
    }
  ],
  "bytecode": "0x6080604052348015600e575f5ffd5b505f80546001600160a01b03191633179055612aec8061002d5f395ff3fe608060405234801561000f575f5ffd5b5060043610610085575f3560e01c80638da5cb5b116100585780638da5cb5b14610100578063a1e5084c1461012a578063b5c892191461013d578063c4ae316814610152575f5ffd5b8063141961bc1461008957806319ac74bd146100b55780635c975abb146100c857806386cdf604146100eb575b5f5ffd5b61009c6100973660046107d8565b61015a565b6040516100ac949392919061081d565b60405180910390f35b61009c6100c3366004610874565b610228565b5f546100db90600160a01b900460ff1681565b60405190151581526020016100ac565b6100f3610279565b6040516100ac919061089c565b5f54610112906001600160a01b031681565b6040516001600160a01b0390911681526020016100ac565b6100f361013836600461093b565b610393565b61015061014b3660046109fa565b6104c3565b005b610150610765565b60018181548110610169575f80fd5b5f9182526020909120600490910201805460018201546002830180546001600160a01b0393841695509290911692916101a190610a78565b80601f01602080910402602001604051908101604052809291908181526020018280546101cd90610a78565b80156102185780601f106101ef57610100808354040283529160200191610218565b820191905f5260205f20905b8154815290600101906020018083116101fb57829003601f168201915b5050505050908060030154905084565b6002602052815f5260405f208181548110610241575f80fd5b5f9182526020909120600490910201805460018201546002830180546001600160a01b0393841696509190921693506101a190610a78565b60606001805480602002602001604051908101604052809291908181526020015f905b8282101561038a575f848152602090819020604080516080810182526004860290920180546001600160a01b03908116845260018201541693830193909352600283018054929392918401916102f190610a78565b80601f016020809104026020016040519081016040528092919081815260200182805461031d90610a78565b80156103685780601f1061033f57610100808354040283529160200191610368565b820191905f5260205f20905b81548152906001019060200180831161034b57829003601f168201915b505050505081526020016003820154815250508152602001906001019061029c565b50505050905090565b6001600160a01b0381165f908152600260209081526040808320805482518185028101850190935280835260609492939192909184015b828210156104b8575f848152602090819020604080516080810182526004860290920180546001600160a01b039081168452600182015416938301939093526002830180549293929184019161041f90610a78565b80601f016020809104026020016040519081016040528092919081815260200182805461044b90610a78565b80156104965780601f1061046d57610100808354040283529160200191610496565b820191905f5260205f20905b81548152906001019060200180831161047957829003601f168201915b50505050508152602001600382015481525050815260200190600101906103ca565b505050509050919050565b5f54600160a01b900460ff16156105155760405162461bcd60e51b8152602060048201526011602482015270119858dd1bdc9e481a5cc81c185d5cd959607a1b60448201526064015b60405180910390fd5b5f83116105645760405162461bcd60e51b815260206004820152601860248201527f4d696e696d756d20676f616c206d757374206265203e20300000000000000000604482015260640161050c565b828210156105b45760405162461bcd60e51b815260206004820152601c60248201527f4d617820676f616c206d757374206265203e3d206d696e20676f616c00000000604482015260640161050c565b5f3386868686866040516105c7906107cb565b6105d696959493929190610ab0565b604051809103905ff0801580156105ef573d5f5f3e3d5ffd5b50604080516080810182526001600160a01b03808416825233602083019081529282018a81524260608401526001805480820182555f91909152835160049091027fb10e2d527612073b26eecdfd717e6a320cf44b4afac2b0732d9fcbe2b7fa0cf6810180549285166001600160a01b031993841617815595517fb10e2d527612073b26eecdfd717e6a320cf44b4afac2b0732d9fcbe2b7fa0cf782018054919095169216919091179092555193945084939192839290917fb10e2d527612073b26eecdfd717e6a320cf44b4afac2b0732d9fcbe2b7fa0cf801906106d49082610b50565b5060609190910151600390910155335f90815260026020818152604080842080546001808201835591865294839020865160049096020180546001600160a01b03199081166001600160a01b03978816178255938701519181018054909416919095161790915583015183929182019061074e9082610b50565b506060820151816003015550505050505050505050565b5f546001600160a01b031633146107ab5760405162461bcd60e51b815260206004820152600a6024820152692737ba1037bbb732b91760b11b604482015260640161050c565b5f805460ff60a01b198116600160a01b9182900460ff1615909102179055565b611eab80610c0c83390190565b5f602082840312156107e8575f5ffd5b5035919050565b5f81518084528060208401602086015e5f602082860101526020601f19601f83011685010191505092915050565b6001600160a01b038581168252841660208201526080604082018190525f90610848908301856107ef565b905082606083015295945050505050565b80356001600160a01b038116811461086f575f5ffd5b919050565b5f5f60408385031215610885575f5ffd5b61088e83610859565b946020939093013593505050565b5f602082016020835280845180835260408501915060408160051b8601019250602086015f5b8281101561092f57868503603f19018452815180516001600160a01b0390811687526020808301519091169087015260408082015160809188018290529061090c908801826107ef565b6060928301519790920196909652945060209384019391909101906001016108c2565b50929695505050505050565b5f6020828403121561094b575f5ffd5b61095482610859565b9392505050565b634e487b7160e01b5f52604160045260245ffd5b5f82601f83011261097e575f5ffd5b813567ffffffffffffffff8111156109985761099861095b565b604051601f8201601f19908116603f0116810167ffffffffffffffff811182821017156109c7576109c761095b565b6040528181528382016020018510156109de575f5ffd5b816020850160208301375f918101602001919091529392505050565b5f5f5f5f5f60a08688031215610a0e575f5ffd5b853567ffffffffffffffff811115610a24575f5ffd5b610a308882890161096f565b955050602086013567ffffffffffffffff811115610a4c575f5ffd5b610a588882890161096f565b959895975050505060408401359360608101359360809091013592509050565b600181811c90821680610a8c57607f821691505b602082108103610aaa57634e487b7160e01b5f52602260045260245ffd5b50919050565b6001600160a01b038716815260c0602082018190525f90610ad3908301886107ef565b8281036040840152610ae581886107ef565b60608401969096525050608081019290925260a0909101529392505050565b601f821115610b4b57805f5260205f20601f840160051c81016020851015610b295750805b601f840160051c820191505b81811015610b48575f8155600101610b35565b50505b505050565b815167ffffffffffffffff811115610b6a57610b6a61095b565b610b7e81610b788454610a78565b84610b04565b6020601f821160018114610bb0575f8315610b995750848201515b5f19600385901b1c1916600184901b178455610b48565b5f84815260208120601f198516915b82811015610bdf5787850151825560209485019460019092019101610bbf565b5084821015610bfc57868401515f19600387901b60f8161c191681555b50505050600190811b0190555056fe608060405234801561000f575f5ffd5b50604051611eab380380611eab83398101604081905261002e916101d9565b5f83116100825760405162461bcd60e51b815260206004820152601860248201527f4d696e696d756d20676f616c206d757374206265203e2030000000000000000060448201526064015b60405180910390fd5b828210156100d25760405162461bcd60e51b815260206004820152601c60248201527f4d617820676f616c206d757374206265203e3d206d696e20676f616c000000006044820152606401610079565b5f6100dd86826102fd565b5060016100ea85826102fd565b506002839055600382905561010281620151806103cb565b61010c90426103e8565b600455505060058054600161ff0160a01b0319166001600160a01b039590951694909417909355506103fb915050565b634e487b7160e01b5f52604160045260245ffd5b5f82601f83011261015f575f5ffd5b81516001600160401b038111156101785761017861013c565b604051601f8201601f19908116603f011681016001600160401b03811182821017156101a6576101a661013c565b6040528181528382016020018510156101bd575f5ffd5b8160208501602083015e5f918101602001919091529392505050565b5f5f5f5f5f5f60c087890312156101ee575f5ffd5b86516001600160a01b0381168114610204575f5ffd5b60208801519096506001600160401b0381111561021f575f5ffd5b61022b89828a01610150565b604089015190965090506001600160401b03811115610248575f5ffd5b61025489828a01610150565b606089015160808a015160a0909a0151989b979a509098909790969095509350505050565b600181811c9082168061028d57607f821691505b6020821081036102ab57634e487b7160e01b5f52602260045260245ffd5b50919050565b601f8211156102f857805f5260205f20601f840160051c810160208510156102d65750805b601f840160051c820191505b818110156102f5575f81556001016102e2565b50505b505050565b81516001600160401b038111156103165761031661013c565b61032a816103248454610279565b846102b1565b6020601f82116001811461035c575f83156103455750848201515b5f19600385901b1c1916600184901b1784556102f5565b5f84815260208120601f198516915b8281101561038b578785015182556020948501946001909201910161036b565b50848210156103a857868401515f19600387901b60f8161c191681555b50505050600190811b01905550565b634e487b7160e01b5f52601160045260245ffd5b80820281158282048414176103e2576103e26103b7565b92915050565b808201808211156103e2576103e26103b7565b611aa3806104085f395ff3fe608060405260043610610131575f3560e01c80637adba527116100a8578063c4ae31681161006d578063c4ae31681461034f578063ca1d209d14610363578063d48675f314610376578063de1705701461038b578063f71441a5146103ac578063ff48826b146103c1575f5ffd5b80637adba5271461028f5780638da5cb5b146102ae5780638ece7b91146102e5578063b85dfb8014610304578063c19d93fb1461032f575f5ffd5b80633ccfd60b116100f95780633ccfd60b146101f2578063590e1ae3146102065780635c975abb1461021a5780636f9fb98a1461024a5780637284e4161461025c5780637497211b14610270575f5ffd5b8063039af9eb1461013557806306fdde031461016c578063105505151461018d57806329dcb0cf146101ae578063389b7533146101d1575b5f5ffd5b348015610140575f5ffd5b5061015461014f366004611491565b6103f5565b604051610163939291906114d6565b60405180910390f35b348015610177575f5ffd5b506101806104b0565b60405161016391906114fa565b348015610198575f5ffd5b506101a161053b565b6040516101639190611527565b3480156101b9575f5ffd5b506101c360045481565b604051908152602001610163565b3480156101dc575f5ffd5b506101f06101eb366004611491565b6105aa565b005b3480156101fd575f5ffd5b506101f06106e0565b348015610211575f5ffd5b506101f061086f565b348015610225575f5ffd5b5060055461023a90600160a01b900460ff1681565b6040519015158152602001610163565b348015610255575f5ffd5b50476101c3565b348015610267575f5ffd5b50610180610a11565b34801561027b575f5ffd5b506101f061028a366004611491565b610a1e565b34801561029a575f5ffd5b5061023a6102a9366004611568565b610b40565b3480156102b9575f5ffd5b506005546102cd906001600160a01b031681565b6040516001600160a01b039091168152602001610163565b3480156102f0575f5ffd5b506101f06102ff3660046115a4565b610b70565b34801561030f575f5ffd5b506101c361031e366004611659565b60076020525f908152604090205481565b34801561033a575f5ffd5b506005546101a190600160a81b900460ff1681565b34801561035a575f5ffd5b506101f0610c61565b6101f0610371366004611491565b610cac565b348015610381575f5ffd5b506101c360025481565b348015610396575f5ffd5b5061039f610fdd565b6040516101639190611672565b3480156103b7575f5ffd5b506101c360035481565b3480156103cc575f5ffd5b506101c36103db366004611659565b6001600160a01b03165f9081526007602052604090205490565b60068181548110610404575f80fd5b905f5260205f2090600302015f91509050805f018054610423906116f5565b80601f016020809104026020016040519081016040528092919081815260200182805461044f906116f5565b801561049a5780601f106104715761010080835404028352916020019161049a565b820191905f5260205f20905b81548152906001019060200180831161047d57829003601f168201915b5050505050908060010154908060020154905083565b5f80546104bc906116f5565b80601f01602080910402602001604051908101604052809291908181526020018280546104e8906116f5565b80156105335780601f1061050a57610100808354040283529160200191610533565b820191905f5260205f20905b81548152906001019060200180831161051657829003601f168201915b505050505081565b5f80600554600160a81b900460ff16600381111561055b5761055b611513565b14801561056a57506004544210155b15610599576002544790811080159061058557506003548111155b610590576002610593565b60015b91505090565b50600554600160a81b900460ff1690565b6005546001600160a01b031633146105dd5760405162461bcd60e51b81526004016105d49061172d565b60405180910390fd5b5f600554600160a81b900460ff1660038111156105fc576105fc611513565b148061062557506003600554600160a81b900460ff16600381111561062357610623611513565b145b61066b5760405162461bcd60e51b815260206004820152601760248201527621b0b6b830b4b3b71034b9903737ba1030b1ba34bb329760491b60448201526064016105d4565b600554600160a01b900460ff16156106bb5760405162461bcd60e51b815260206004820152601360248201527221b7b73a3930b1ba1034b9903830bab9b2b21760691b60448201526064016105d4565b6106c88162015180611768565b60045f8282546106d8919061177f565b909155505050565b6005546001600160a01b0316331461070a5760405162461bcd60e51b81526004016105d49061172d565b6107126110dc565b6001600554600160a81b900460ff16600381111561073257610732611513565b148061075b57506003600554600160a81b900460ff16600381111561075957610759611513565b145b6107b55760405162461bcd60e51b815260206004820152602560248201527f43616d706169676e206e6f7420656c696769626c6520666f722077697468647260448201526430bbb0b61760d91b60648201526084016105d4565b6040805180820190915260148152732bb4ba34323930bbb4b733903130b630b731b29d60611b602082015247906107ec908261130a565b5f81116108345760405162461bcd60e51b81526020600482015260166024820152754e6f2062616c616e636520746f20776974686472617760501b60448201526064016105d4565b6005546040516001600160a01b039091169082156108fc029083905f818181858888f1935050505015801561086b573d5f5f3e3d5ffd5b5050565b6108776110dc565b6002600554600160a81b900460ff16600381111561089757610897611513565b146108dd5760405162461bcd60e51b81526020600482015260166024820152752932b33ab73239903737ba1030bb30b4b630b136329760511b60448201526064016105d4565b335f9081526007602090815260409182902054825180840190935260118352702932b33ab73234b7339030b6b7bab73a1d60791b91830191909152904790610925908361130a565b6109586040518060400160405280601181526020017021b7b73a3930b1ba103130b630b731b29d60791b8152508261130a565b6109856040518060400160405280600b81526020016a36b9b39039b2b73232b91d60a91b8152503361134f565b5f82116109d45760405162461bcd60e51b815260206004820152601960248201527f4e6f20636f6e747269627574696f6e20746f20726566756e640000000000000060448201526064016105d4565b335f818152600760205260408082208290555184156108fc0291859190818181858888f19350505050158015610a0c573d5f5f3e3d5ffd5b505050565b600180546104bc906116f5565b6005546001600160a01b03163314610a485760405162461bcd60e51b81526004016105d49061172d565b6006548110610a905760405162461bcd60e51b81526020600482015260146024820152732a34b2b9103237b2b9903737ba1032bc34b9ba1760611b60448201526064016105d4565b60068054610aa090600190611792565b81548110610ab057610ab06117a5565b905f5260205f20906003020160068281548110610acf57610acf6117a5565b5f918252602090912060039091020180610ae98382611804565b50600182810154908201556002918201549101556006805480610b0e57610b0e6118dc565b5f828152602081205f1990920191600383020190610b2c8282611447565b505f60018201819055600290910155905550565b6001600160a01b0382165f90815260076020908152604080832084845260010190915290205460ff165b92915050565b6005546001600160a01b03163314610b9a5760405162461bcd60e51b81526004016105d49061172d565b5f8111610be95760405162461bcd60e51b815260206004820152601e60248201527f416d6f756e74206d7573742062652067726561746572207468616e20302e000060448201526064016105d4565b60408051606081018252838152602081018390525f918101829052600680546001810182559252805190916003027ff652222313e28459528d920b65115c16c04f3efc82aaedc97be59f3f377c0d3f01908190610c4690826118f0565b50602082015181600101556040820151816002015550505050565b6005546001600160a01b03163314610c8b5760405162461bcd60e51b81526004016105d49061172d565b6005805460ff60a01b198116600160a01b9182900460ff1615909102179055565b5f600554600160a81b900460ff166003811115610ccb57610ccb611513565b1480610cf457506003600554600160a81b900460ff166003811115610cf257610cf2611513565b145b610d3a5760405162461bcd60e51b815260206004820152601760248201527621b0b6b830b4b3b71034b9903737ba1030b1ba34bb329760491b60448201526064016105d4565b600554600160a01b900460ff1615610d8a5760405162461bcd60e51b815260206004820152601360248201527221b7b73a3930b1ba1034b9903830bab9b2b21760691b60448201526064016105d4565b335f90815260076020908152604080832084845260010190915290205460ff1615610df75760405162461bcd60e51b815260206004820152601960248201527f416c72656164792066756e646564207468697320746965722e0000000000000060448201526064016105d4565b6006548110610e385760405162461bcd60e51b815260206004820152600d60248201526c24b73b30b634b2103a34b2b91760991b60448201526064016105d4565b60068181548110610e4b57610e4b6117a5565b905f5260205f209060030201600101543414610e9d5760405162461bcd60e51b815260206004820152601160248201527024b731b7b93932b1ba1030b6b7bab73a1760791b60448201526064016105d4565b600354471115610efe5760405162461bcd60e51b815260206004820152602660248201527f43616d706169676e20686173207265616368656420697473206d6178696d756d6044820152651033b7b0b61760d11b60648201526084016105d4565b60068181548110610f1157610f116117a5565b5f91825260208220600260039092020101805491610f2e836119a3565b9190505550610f856040518060400160405280600a815260200169313c903130b1b5b2b91d60b11b815250336040518060400160405280600c81526020016b3bb4ba341030b6b7bab73a1d60a11b81525034611394565b335f9081526007602052604081208054349290610fa390849061177f565b9091555050335f9081526007602090815260408083208484526001908101909252909120805460ff19169091179055610fda6110dc565b50565b60606006805480602002602001604051908101604052809291908181526020015f905b828210156110d3578382905f5260205f2090600302016040518060600160405290815f82018054611030906116f5565b80601f016020809104026020016040519081016040528092919081815260200182805461105c906116f5565b80156110a75780601f1061107e576101008083540402835291602001916110a7565b820191905f5260205f20905b81548152906001019060200180831161108a57829003601f168201915b505050505081526020016001820154815260200160028201548152505081526020019060010190611000565b50505050905090565b5f600554600160a81b900460ff1660038111156110fb576110fb611513565b148061112457506003600554600160a81b900460ff16600381111561112257611122611513565b145b156113085760408051808201909152601081526f21bab93932b73a103130b630b731b29d60811b6020820152479061115c908261130a565b6111896040518060400160405280600981526020016826b4b71033b7b0b61d60b91b81525060025461130a565b6111b66040518060400160405280600981526020016826b0bc1033b7b0b61d60b91b81525060035461130a565b6111eb6040518060400160405280601381526020017231bab93932b73a10313637b1b5903a34b6b29d60691b8152504261130a565b611218604051806040016040528060098152602001682232b0b23634b7329d60b91b81525060045461130a565b611250604051806040016040528060118152602001703232b0b23634b7329031b937b9b9b2b21d60791b8152506004544210156113e3565b60045442106112b657600354811061128057600580546001919060ff60a81b1916600160a81b835b021790555050565b801561129c57506005805460ff60a81b1916600360a81b179055565b600580546002919060ff60a81b1916600160a81b83611278565b60035481106112d957600580546001919060ff60a81b1916600160a81b83611278565b80156112f957600580546003919060ff60a81b1916600160a81b83611278565b506005805460ff60a81b191690555b565b61086b82826040516024016113209291906119bb565b60408051601f198184030181529190526020810180516001600160e01b0316632d839cb360e21b179052611424565b61086b82826040516024016113659291906119dc565b60408051601f198184030181529190526020810180516001600160e01b031663319af33360e01b179052611424565b6113dd848484846040516024016113ae9493929190611a05565b60408051601f198184030181529190526020810180516001600160e01b03166348e8889760e11b179052611424565b50505050565b61086b82826040516024016113f9929190611a4a565b60408051601f198184030181529190526020810180516001600160e01b031663c3b5563560e01b1790525b610fda815f6a636f6e736f6c652e6c6f6790505f5f835160208501845afa505050565b508054611453906116f5565b5f825580601f10611462575050565b601f0160209004905f5260205f2090810190610fda91905b8082111561148d575f815560010161147a565b5090565b5f602082840312156114a1575f5ffd5b5035919050565b5f81518084528060208401602086015e5f602082860101526020601f19601f83011685010191505092915050565b606081525f6114e860608301866114a8565b60208301949094525060400152919050565b602081525f61150c60208301846114a8565b9392505050565b634e487b7160e01b5f52602160045260245ffd5b602081016004831061154757634e487b7160e01b5f52602160045260245ffd5b91905290565b80356001600160a01b0381168114611563575f5ffd5b919050565b5f5f60408385031215611579575f5ffd5b6115828361154d565b946020939093013593505050565b634e487b7160e01b5f52604160045260245ffd5b5f5f604083850312156115b5575f5ffd5b823567ffffffffffffffff8111156115cb575f5ffd5b8301601f810185136115db575f5ffd5b803567ffffffffffffffff8111156115f5576115f5611590565b604051601f8201601f19908116603f0116810167ffffffffffffffff8111828210171561162457611624611590565b60405281815282820160200187101561163b575f5ffd5b816020840160208301375f6020928201830152969401359450505050565b5f60208284031215611669575f5ffd5b61150c8261154d565b5f602082016020835280845180835260408501915060408160051b8601019250602086015f5b828110156116e957603f1987860301845281518051606087526116be60608801826114a8565b6020838101518982015260409384015193909801929092525094938401939190910190600101611698565b50929695505050505050565b600181811c9082168061170957607f821691505b60208210810361172757634e487b7160e01b5f52602260045260245ffd5b50919050565b6020808252600d908201526c2737ba103a34329037bbb732b960991b604082015260600190565b634e487b7160e01b5f52601160045260245ffd5b8082028115828204841417610b6a57610b6a611754565b80820180821115610b6a57610b6a611754565b81810381811115610b6a57610b6a611754565b634e487b7160e01b5f52603260045260245ffd5b601f821115610a0c57805f5260205f20601f840160051c810160208510156117de5750805b601f840160051c820191505b818110156117fd575f81556001016117ea565b5050505050565b81810361180f575050565b61181982546116f5565b67ffffffffffffffff81111561183157611831611590565b6118458161183f84546116f5565b846117b9565b5f601f821160018114611879575f831561185f5750848201545b600184901b5f19600386901b1c198216175b8555506117fd565b5f8581526020808220868352908220601f198616925b838110156118af578286015482556001958601959091019060200161188f565b50858310156118cc57818501545f19600388901b60f8161c191681555b5050505050600190811b01905550565b634e487b7160e01b5f52603160045260245ffd5b815167ffffffffffffffff81111561190a5761190a611590565b6119188161183f84546116f5565b6020601f821160018114611948575f831561185f575081850151600184901b5f19600386901b1c19821617611871565b5f84815260208120601f198516915b828110156119775787850151825560209485019460019092019101611957565b508482101561199457868401515f19600387901b60f8161c191681555b50505050600190811b01905550565b5f600182016119b4576119b4611754565b5060010190565b604081525f6119cd60408301856114a8565b90508260208301529392505050565b604081525f6119ee60408301856114a8565b905060018060a01b03831660208301529392505050565b608081525f611a1760808301876114a8565b6001600160a01b03861660208401528281036040840152611a3881866114a8565b91505082606083015295945050505050565b604081525f611a5c60408301856114a8565b90508215156020830152939250505056fea2646970667358221220443a22d30604eac142cc6e5c6b899fc5890f5b0d32b5a0876db45d954f1400a164736f6c634300081c0033a2646970667358221220379b12121a7c4c91d6dfd7d890da05ba034dbb9c2024033e25594c8f67828c3464736f6c634300081c0033",
  "linkReferences": {},
  "deployedLinkReferences": {},
  "immutableReferences": {},
  "inputSourceName": "project/contracts/CrowdfundingFactory.sol",
  "buildInfoId": "solc-0_8_28-2719fdb121c31eaa55ee16e7a1b4cb652ede14fa"
}